:100000000C945D000C94FF040C94D8040C948500AF
:100010000C9485000C9485000C9485000C9485004C
:100020000C9485000C9485000C9485000C9485003C
:100030000C9485000C9485000C9485000C9485002C
:100040000C948E040C9485000C945C040C9436047F
:100050000C9485000C9485000C9485000C9485000C
:100060000C9485000C9485000000000024002700FB
:100070002A0000000000250028002B0004040404CE
:100080000404040402020202020203030303030342
:10009000010204081020408001020408102001021F
:1000A00004081020000000080002010000030407FB
:1000B0000000000000000000260511241FBECFEF45
:1000C000D8E0DEBFCDBF22E0A4E5B1E001C01D92C3
:1000D000A33DB207E1F711E0A0E0B1E0E8E3FBE106
:1000E00002C005900D92A435B107D9F710E0CDE517
:1000F000D0E004C02197FE010E94940DCC35D107B9
:10010000C9F70E9495050C949A0D0C94000082305A
:10011000C8F4E82FF0E0EE0FFF1FE050FF4F7183AF
:100120006083813041F0809169008C7F8260809390
:100130006900E89A089580916900837F88608093C0
:100140006900E99A0895AF92BF92CF92DF92EF9241
:10015000FF920F931F93CF93DF936C017B018B0171
:10016000040F151FEB015E01AE18BF08C017D107C1
:1001700059F06991D601ED91FC910190F081E02D4B
:10018000C6010995892B79F7C501DF91CF911F91A0
:100190000F91FF90EF90DF90CF90BF90AF900895B8
:1001A00089B129B190E0959587959595879530E02F
:1001B00043E0359527954A95E1F7822780FF1BC0DC
:1001C00081E090E040919D0150919E0160919F01DE
:1001D0007091A001092E000CAA0BBB0B840F951F78
:1001E000A61FB71F80939D0190939E01A0939F012E
:1001F000B093A00108958FEF9FEFE4CF89B129B1AB
:1002000090E0959587959595879530E043E03595F5
:1002100027954A95E1F7822780FD1BC081E090E099
:1002200040919D0150919E0160919F017091A001AC
:10023000092E000CAA0BBB0B840F951FA61FB71F1E
:1002400080939D0190939E01A0939F01B093A00184
:1002500008958FEF9FEFE4CFFC01538D448D252F40
:1002600030E0842F90E0821B930B541710F0CF9650
:10027000089501970895FC01918D828D981761F082
:10028000A28DAE0FBF2FB11D5D968C91928D9F5F99
:100290009F73928F90E008958FEF9FEF0895FC0178
:1002A000918D828D981731F0828DE80FF11D858D2B
:1002B00090E008958FEF9FEF0895FC01918D228DBE
:1002C000892F90E0805C9F4F821B91098F73992743
:1002D000089581EA91E00E945D0121E0892B09F4F3
:1002E00020E0822F089580E090E0892B29F00E9481
:1002F000690181110C9400000895FC01A48DA80FE0
:10030000B92FB11DA35ABF4F2C91848D90E0019657
:100310008F739927848FA689B7892C93A089B18977
:100320008C91837080648C93938D848D981306C018
:100330000288F389E02D80818F7D80830895EF927C
:10034000FF920F931F93CF93DF93EC0181E0888F8F
:100350009B8D8C8D98131AC0E889F989808185FF5F
:1003600015C09FB7F894EE89FF896083E889F98901
:1003700080818370806480839FBF81E090E0DF9103
:10038000CF911F910F91FF90EF900895F62E0B8D56
:1003900010E00F5F1F4F0F731127E02E8C8D8E1111
:1003A0000CC00FB607FCFACFE889F989808185FF78
:1003B000F5CFCE010E947D01F1CFEB8DEC0FFD2F2B
:1003C000F11DE35AFF4FF0829FB7F8940B8FEA8933
:1003D000FB8980818062CFCFCF93DF93EC01888D42
:1003E0008823B9F0AA89BB89E889F9898C9185FDB0
:1003F00003C0808186FD0DC00FB607FCF7CF8C913E
:1004000085FFF2CF808185FFEDCFCE010E947D0177
:10041000E9CFDF91CF91089590E0FC01EC55FF4FBB
:100420002491FC01E057FF4F3491FC01E458FF4F49
:10043000E491EE23C9F0222339F0233001F1A8F42E
:10044000213019F1223029F1F0E0EE0FFF1FEE58B4
:10045000FF4FA591B4918FB7F894EC91611126C02C
:1004600030953E233C938FBF08952730A9F0283064
:10047000C9F0243049F7809180008F7D03C08091BE
:1004800080008F7780938000DFCF84B58F7784BD25
:10049000DBCF84B58F7DFBCF8091B0008F778093C9
:1004A000B000D2CF8091B0008F7DF9CF3E2BDACF54
:1004B000CF93DF9390E0FC01E057FF4F24918458E5
:1004C0009F4FFC0184918823D1F090E0880F991F01
:1004D000FC01E859FF4FA591B491FC01EE58FF4F84
:1004E000C591D491623071F49FB7F8943C91822FFA
:1004F000809583238C93E8812E2B28839FBFDF91E7
:10050000CF9108958FB7F894EC912E2B2C938FBF39
:10051000F6CF3FB7F8948091590190915A01A0917C
:100520005B01B0915C0126B5A89B05C02F3F19F077
:100530000196A11DB11D3FBFBA2FA92F982F882763
:10054000BC01CD01620F711D811D911D42E0660F3E
:10055000771F881F991F4A95D1F708952FB7F894F0
:100560006091550170915601809157019091580109
:100570002FBF08950895EF92FF920F931F93CF938B
:10058000DF9300D000D0CDB7DEB781EA91E00E94C2
:100590003B0181EA91E00E943B018E010F5F1F4FFA
:1005A00078018A3341F0F80181938F0181EA91E06B
:1005B0000E943B01F6CFC7010E94DD0A182F81EA95
:1005C00091E00E943B018053990B8230910520F409
:1005D000682F812F0E940C0281EA91E00E943B016A
:1005E0008A3011F08D30C1F781EA91E00E944F010D
:1005F0008A3021F481EA91E00E943B010F900F9034
:100600000F900F90DF91CF911F910F91FF90EF907E
:100610000895FC0101900020E9F73197AF01481BD4
:10062000590BBC0181EA91E00C94A3008F929F9238
:10063000AF92BF920F931F93CF93DF93CDB7DEB7E7
:10064000A1970FB6F894DEBF0FBECDBF19A24230FE
:1006500008F44AE08E010F5D1F4F842E912CB12CBF
:10066000A12CA50194010E94530CE62FB901CA01E7
:10067000EA30F4F4E05DD801EE938D01232B242BB6
:10068000252B79F790E080E0109719F0CD010E94BA
:100690000903A1960FB6F894DEBF0FBECDBFDF9160
:1006A000CF911F910F91BF90AF909F908F90089521
:1006B000E95CE1CF4F925F926F927F928F929F920F
:1006C000AF92BF92CF92DF92EF92FF920F931F9360
:1006D000CF936B017C01742EAC019B010E948F0DA6
:1006E000882399F086E191E0CF911F910F91FF90BF
:1006F000EF90DF90CF90BF90AF909F908F907F90C2
:100700006F905F904F900C94090346015701E89455
:10071000B7F82FEF3FEF4FE75FE7C501B4010E9445
:100720008F0D81110DC02FEF3FEF4FE75FE7C50140
:10073000B4010E942F0B18161CF48AE191E0D4CF6B
:100740002FEF3FEF4FE75FE4C701B6010E948A0D2C
:1007500018161CF48EE191E0C7CF2FEF3FEF4FE763
:100760005FECC701B6010E942F0B87FDF3CF20E09D
:1007700030E0A901C701B6010E942F0B10E000E094
:1007800087FF0AC06DE281EA91E00E949F018C011F
:10079000F7FAF094F7F8F094C0E060E070E080E0E1
:1007A0009FE37C1641F020E030E040E251E40E94FB
:1007B000E20CCF5FF6CFA70196010E94760C2B01C9
:1007C0003C010E945B0D4B015C014AE00E94160354
:1007D0007C01E00EF11ECC23C1F1C501B4010E94E1
:1007E000340B9B01AC01C301B2010E94750C4B019B
:1007F0005C016EE281EA91E00E949F01E80EF91E21
:10080000C15018F120E030E040E251E4C501B401EC
:100810000E94950B2B013C010E945B0D4B01B12CFA
:10082000A12C4AE0C501B4010E941603E80EF91E8E
:10083000C501B4010E94340B9B01AC01C301B2019C
:100840000E94750C4B015C01DBCFC701CF911F915A
:100850000F91FF90EF90DF90CF90BF90AF909F905F
:100860008F907F906F905F904F9008951F920F929E
:100870000FB60F9211242F933F934F935F936F9373
:100880007F938F939F93AF93BF93EF93FF9381EAEF
:1008900091E00E947D01FF91EF91BF91AF919F91F7
:1008A0008F917F916F915F914F913F912F910F9019
:1008B0000FBE0F901F9018951F920F920FB60F92B8
:1008C00011242F938F939F93EF93FF93E091B101A6
:1008D000F091B2018081E091B701F091B80182FD01
:1008E0001BC090818091BA018F5F8F732091BB01F3
:1008F000821741F0E091BA01F0E0EF55FE4F958F7D
:100900008093BA01FF91EF919F918F912F910F905A
:100910000FBE0F901F9018958081F4CF1F920F92F9
:100920000FB60F9211242F933F938F939F93AF9302
:10093000BF938091550190915601A0915701B091BC
:1009400058013091540123E0230F2D3758F50196BB
:10095000A11DB11D20935401809355019093560120
:10096000A0935701B09358018091590190915A0179
:10097000A0915B01B0915C010196A11DB11D809316
:10098000590190935A01A0935B01B0935C01BF9110
:10099000AF919F918F913F912F910F900FBE0F902C
:1009A0001F90189526E8230F0296A11DB11DD2CFE6
:1009B0001F920F920FB60F9211242F933F934F93D4
:1009C0005F936F937F938F939F93AF93BF93EF93B7
:1009D000FF93E0910201F09103010995FF91EF91DE
:1009E000BF91AF919F918F917F916F915F914F9147
:1009F0003F912F910F900FBE0F901F9018951F924F
:100A00000F920FB60F9211242F933F934F935F9342
:100A10006F937F938F939F93AF93BF93EF93FF93C6
:100A2000E0910001F09101010995FF91EF91BF91D3
:100A3000AF919F918F917F916F915F914F913F9176
:100A40002F910F900FBE0F901F901895E1EAF1E0E3
:100A50001382128288EE93E0A0E0B0E08483958355
:100A6000A683B78388E091E09183808385EC90E052
:100A70009587848784EC90E09787868780EC90E068
:100A8000918B808B81EC90E0938B828B82EC90E059
:100A9000958B848B86EC90E0978B868B118E128ED3
:100AA000138E148EEEE3F2E0168217821086118602
:100AB000128613861486158616861786108A118A62
:100AC000128A138A148A158AE4E8F2E08BE090E037
:100AD000938782878CE090E09587848780E090E020
:100AE000A0E8BFE380A791A7A2A7B3A714A615A665
:100AF00016A617A610AA11AA12AA13AA118210826A
:100B0000148A158A168A178A138A128A81E090E05D
:100B10009093CE028093CD021282138214821582AA
:100B200014A215A216A217A20895CF93DF9300D0A6
:100B300000D0CDB7DEB7789484B5826084BD84B52B
:100B4000816084BD85B5826085BD85B5816085BDC8
:100B500080916E00816080936E0010928100809180
:100B60008100826080938100809181008160809308
:100B70008100809180008160809380008091B1002D
:100B800084608093B1008091B00081608093B00058
:100B900080917A00846080937A0080917A008260EC
:100BA00080937A0080917A00816080937A008091AE
:100BB0007A00806880937A001092C10010928002BF
:100BC00010928102109282021092830210924002CF
:100BD0001092410210924202109243020E94AE0211
:100BE0006B017C014B015C0128EB820E2BE0921E15
:100BF000A11CB11C0E94AE026C157D058E059F05DF
:100C000028F086169706A806B906A0F70E94890262
:100C10004B015C0198EEC92E93E0D92EE12CF12C0A
:100C20000E948902681979098A099B09683E734004
:100C300081059105A8F331E0C31AD108E108F10854
:100C400048EE840E43E0941EA11CB11CC114D104D3
:100C5000E104F10429F7E091B101F091B20182E0E1
:100C60008083E091AD01F091AE011082E091AF017F
:100C7000F091B00180E180831092B901E091B5015B
:100C8000F091B60186E08083E091B301F091B40168
:100C9000808180618083E091B301F091B401808113
:100CA00088608083E091B301F091B4018081806815
:100CB0008083E091B301F091B40180818F7D8083C6
:100CC0000E94AE0260934002709341028093420200
:100CD0009093430282E291E00E9409030E94AE02D7
:100CE0006B017C014B015C018AE0880E911CA11C08
:100CF000B11C0E94AE026C157D058E059F0528F083
:100D000086169706A806B906A0F781E080935402DC
:100D10000E94AE02609340027093410280934202AF
:100D20009093430283E391E00E94090361E0809184
:100D30008E020E94580261E0809190020E94580247
:100D400062E082E00E94580262E083E00E94580262
:100D50000E94AE02672B682B692B09F4F3C00E9436
:100D6000AE0200915D0110915E0120915F01309112
:100D70006001601771078207930708F4E1C20091D0
:100D80005D0110915E0120915F01309160016B0166
:100D90007C01C01AD10AE20AF30A97018601083ED3
:100DA00013402105310508F4D5C060935D017093AF
:100DB0005E0180935F019093600184EF91E0A0E079
:100DC000B0E080934C0290934D02A0934E02B093FA
:100DD0004F02109250021092510210925202109241
:100DE00053028091440290914502A0914602B09135
:100DF00047028093480290934902A0934A02B0931D
:100E00004B020E94AE0260934402709345028093AD
:100E100046029093470281EA91E00E944F01843696
:100E200011F40E94BB020E94AE02609340027093D4
:100E3000410280934202909343020E94AE026B01F2
:100E40007C018AE391E00E9409034AE061E070E0DE
:100E500080E090E00E94160381E491E00E94090383
:100E60004AE0C701B6010E94160383E491E00E94A4
:100E700009038091440290914502A0914602B091ED
:100E80004702A7019601281B390B4A0B5B0BCA01CD
:100E9000B9014AE00E94160383E491E00E9409032D
:100EA0006091440270914502809146029091470200
:100EB000009148021091490220914A0230914B0260
:100EC000601B710B820B930B4AE00E94160385E4B2
:100ED00091E00E9409030E94AE024AE00E941603BC
:100EE00087E491E00E9409038EE491E00E940903E7
:100EF0000E94AE026B017C014B015C0132E0830E6B
:100F0000911CA11CB11C0E94AE026C157D058E05C2
:100F10009F0528F086169706A806B906A0F781EA6D
:100F200091E00E944F01843611F40E94BB020E949E
:100F3000AE02609344027093450280934602909300
:100F4000470208C00E94AE0262307105810591051A
:100F500008F005CF60ED70E080E00E9487006EEF42
:100F600070E081E00E948700E091B101F091B20150
:100F700082E08083E091AD01F091AE011082E091BA
:100F8000AF01F091B0018FEC80831092B901E09134
:100F9000B501F091B60186E08083E091B301F09154
:100FA000B401808180618083E091B301F091B4014C
:100FB000808188608083E091B301F091B4018081E9
:100FC00080688083E091B301F091B40180818F7DCE
:100FD000808322242394312C0FEF1FEF8FB7F894D6
:100FE00040919D0150919E0160919F017091A001DF
:100FF00050938502409384028FBFC0909901D09096
:101000009A01E0909B01F0909C01C982DA82EB8208
:10101000FC82C0909501D0909601E0909701F090ED
:1010200098014091910150919201609193017091CA
:10103000940180918D0190918E01A0918F01B091CA
:10104000900120918B0130918C01C092AC02D09222
:10105000AD02E092AE02F092AF024093B002509324
:10106000B1026093B2027093B3028093B402909382
:10107000B502A093B602B093B7020E9489026B0139
:101080007C01C0928A02D0928B02E0928C02F09294
:101090008D028091980290919902A0919A02B0914C
:1010A0009B02A7019601281B390B4A0B5B0BCA0157
:1010B000B9010E94360B20E034E244E759E40E9473
:1010C000E20C4B015C0180929C0290929D02A092E6
:1010D0009E02B0929F02609084027090850280917F
:1010E000960290919702B301681B790B072E000CB2
:1010F000880B990B0E94360BA50194010E94E20C0B
:101100006093A0027093A1028093A2029093A30225
:101110007092970260929602C0929802D0929902C1
:10112000E0929A02F0929B0220E030E040E252E42A
:101130000E94E20C20E030E040E752E40E94950B70
:101140006B017C01C092A402D092A502E092A6029B
:10115000F092A7022EEB3FE94AE55FE36091860239
:101160007091870280918802909189020E94950B6C
:101170002B013C012BE238E145E95DE3C701B601F3
:101180000E94950B9B01AC01C301B2010E94760C39
:101190002B013C012BE238E145E95DE36091A802B7
:1011A0007091A9028091AA029091AB020E94950BC6
:1011B0009B01AC01C301B2010E94760C9B01AC0102
:1011C00020938602309387024093880250938902CD
:1011D000C092A802D092A902E092AA02F092AB02B9
:1011E00069817A818B819C810E94750C6B017C01E5
:1011F000C092BD02D092BE02E092BF02F092C00245
:10120000A50194010E94950B2091C5023091C60260
:101210004091C7025091C8020E94760C2B013C01FC
:101220004092C5025092C6026092C7027092C802F4
:101230002091C1023091C2024091C3025091C40278
:10124000C701B6010E94750CA50194010E94E20C31
:101250004B015C018092C9029092CA02A092CB021B
:10126000B092CC022091AC023091AD024091AE021E
:101270005091AF02C701B6010E94950B6B017C0132
:101280002091B0023091B1024091B2025091B3026C
:10129000C301B2010E94950B9B01AC01C701B601CD
:1012A0000E94760C6B017C012091B4023091B50252
:1012B0004091B6025091B702C501B4010E94950B4E
:1012C0009B01AC01C701B6010E94760C6B017C0149
:1012D000C092B902D092BA02E092BB02F092BC0274
:1012E00020E030E0A9010E942F0B87FF32C010934D
:1012F000CE020093CD02C701B6019F770E94540D24
:101300006F3F710509F09CF57093D0026093CF0296
:10131000C0908E02D0908F02E090CF02F090D00269
:10132000A090CD02B090CE0261E08C2D0E945802B8
:10133000E114F10419F560E08C2D0E940C024DC0FF
:1013400060935D0170935E0180935F0190936001F3
:1013500016CD20E030E0A901C701B6010E948A0D38
:1013600018164CF63092CE022092CD02C4CF4FEF29
:1013700050E05093D0024093CF02CACF5FEFE51602
:10138000F10411F461E0D8CFF601FF27EC55FF4FCF
:10139000E491E33009F4B4C050F4E130D1F0E2302C
:1013A00009F4A9C080E8E816F10464F7C4CFE73077
:1013B00009F4B0C0E83009F4B5C0E43099F7809181
:1013C0008000806280938000F0928B00E0928A001F
:1013D00004C084B5806884BDE7BC8091900261E060
:1013E00091E0A916B10429F060E0AB20A09409F0C7
:1013F000A1C00E940C0281EA91E00E945D011816D2
:1014000019060CF0B2C081EA91E00E943B012091E4
:10141000890130918A018D3009F097C02F593E4FD4
:10142000F901108261E571E081E691E00E94FB0A1A
:101430000E94DD0ABC01990F880B990B0E94360BA4
:101440006093990170939A0180939B0190939C0102
:1014500061E571E090E080E00E94FB0A0E94DD0AF5
:10146000BC01990F880B990B0E94360B6093950174
:1014700070939601809397019093980161E571E0D4
:1014800090E080E00E94FB0A0E94DD0ABC01990FF7
:10149000880B990B0E94360B609391017093920117
:1014A000809393019093940161E571E090E080E076
:1014B0000E94FB0A0E94DD0ABC01990F880B990B60
:1014C0000E94360B60938D0170938E0180938F0183
:1014D0009093900161E571E090E080E00E94FB0A4A
:1014E0000E94DD0A90938C0180938B0110928A01F7
:1014F0001092890180CF84B5806284BDE8BC6DCF35
:1015000080918000806880938000F0928900E09252
:10151000880063CF8091B00080688093B000E09233
:10152000B3005BCF8091B00080628093B000E09206
:10153000B40053CF0E940C02F0908E0261E08F2D18
:101540000E94580260E08F2D54CF2732310508F0F9
:1015500052CFA9014F5F5F4F50938A014093890199
:101560002F593E4FD9018C9346CF609186027091DE
:101570008702809188029091890242E00E945A037A
:101580006CE281EA91E00E949F0142E069817A81E8
:101590008B819C810E945A038EE491E00E94090392
:1015A000E0E0F0E0EF2B09F419CD0E9469018823F7
:1015B00009F414CD0E94000011CDFC018827992761
:1015C000E89421912032E9F3293010F02E30C8F34D
:1015D0002B3241F02D3239F4689404C00E94270B5D
:1015E000820F911D219120532A30C0F31EF4909553
:1015F00081959F4F089541ED52E00E94000B0895A0
:10160000FA01A191B081009719F41097E1F0CD0192
:10161000DC01CD010D90002011F4C00113C0FB01CD
:101620002191222319F02015D9F7F3CFFB01219145
:10163000201519F41E92119606C02223C1F70D90B1
:101640000020A1F7D001FA01A193B08308957AE0B8
:10165000979F902D879F802D910D112408950E94B2
:10166000710B08F481E00895E89409C097FB3EF4FB
:1016700090958095709561957F4F8F4F9F4F9923DF
:10168000A9F0F92F96E9BB279395F695879577955D
:101690006795B795F111F8CFFAF4BB0F11F460FF1D
:1016A0001BC06F5F7F4F8F4F9F4F16C0882311F075
:1016B00096E911C0772321F09EE8872F762F05C089
:1016C000662371F096E8862F70E060E02AF09A9524
:1016D000660F771F881FDAF7880F9695879597F919
:1016E0000895990F0008550FAA0BE0E8FEEF1616B3
:1016F0001706E807F907C0F012161306E407F50706
:1017000098F0621B730B840B950B39F40A2661F079
:10171000232B242B252B21F408950A2609F4A1401C
:10172000A6958FEF811D811D08950E94A80B0C9432
:10173000190C0E940B0C38F00E94120C20F095231B
:1017400011F00C94020C0C94080C11240C944D0C08
:101750000E942A0C70F3959FC1F3950F50E0551F1E
:10176000629FF001729FBB27F00DB11D639FAA27F6
:10177000F00DB11DAA1F649F6627B00DA11D661F45
:10178000829F2227B00DA11D621F739FB00DA11D66
:10179000621F839FA00D611D221F749F3327A00D20
:1017A000611D231F849F600D211D822F762F6A2FBC
:1017B00011249F5750409AF0F1F088234AF0EE0F21
:1017C000FF1FBB1F661F771F881F91505040A9F74E
:1017D0009E3F510580F00C94020C0C944D0C5F3F21
:1017E000E4F3983ED4F3869577956795B795F7958A
:1017F000E7959F5FC1F7FE2B880F911D9695879502
:1018000097F9089597F99F6780E870E060E0089580
:101810009FEF80EC089500240A9416161706180608
:101820000906089500240A941216130614060506E4
:101830000895092E0394000C11F4882352F0BB0F75
:1018400040F4BF2B11F460FF04C06F5F7F4F8F4FD8
:101850009F4F089557FD9058440F551F59F05F3F13
:1018600071F04795880F97FB991F61F09F3F79F0C2
:1018700087950895121613061406551FF2CF469544
:10188000F1DF08C0161617061806991FF1CF8695C6
:101890007105610508940895E894BB2766277727AA
:1018A000CB0197F90895A1E21A2EAA1BBB1BFD01DB
:1018B0000DC0AA1FBB1FEE1FFF1FA217B307E4072F
:1018C000F50720F0A21BB30BE40BF50B661F771F87
:1018D000881F991F1A9469F7609570958095909567
:1018E0009B01AC01BD01CF0108955058BB27AA2729
:1018F0000E948D0C0C94190C0E940B0C38F00E9465
:10190000120C20F039F49F3F19F426F40C94080CC3
:101910000EF4E095E7FB0C94020CE92F0E942A0CD0
:1019200058F3BA17620773078407950720F079F414
:10193000A6F50C944C0C0EF4E0950B2EBA2FA02DAE
:101940000B01B90190010C01CA01A0011124FF276C
:10195000591B99F0593F50F4503E68F11A16F04067
:10196000A22F232F342F4427585FF3CF4695379566
:101970002795A795F0405395C9F77EF41F16BA0B2B
:10198000620B730B840BBAF09150A1F0FF0FBB1FD9
:10199000661F771F881FC2F70EC0BA0F621F731F22
:1019A000841F48F4879577956795B795F7959E3F7F
:1019B00008F0B0CF9395880F08F09927EE0F979510
:1019C000879508950E94F60C0C94190C0E94120C35
:1019D00058F00E940B0C40F029F45F3F29F00C9462
:1019E000020C51110C944D0C0C94080C0E942A0C02
:1019F00068F39923B1F3552391F3951B550BBB273E
:101A0000AA2762177307840738F09F5F5F4F220F82
:101A1000331F441FAA1FA9F335D00E2E3AF0E0E879
:101A200032D091505040E695001CCAF72BD0FE2FC3
:101A300029D0660F771F881FBB1F26173707480757
:101A4000AB07B0E809F0BB0B802DBF01FF2793580F
:101A50005F4F3AF09E3F510578F00C94020C0C94C5
:101A60004D0C5F3FE4F3983ED4F3869577956795E8
:101A7000B795F7959F5FC9F7880F911D9695879544
:101A800097F90895E1E0660F771F881FBB1F621763
:101A900073078407BA0720F0621B730B840BBA0B21
:101AA000EE1F88F7E09508950E945B0D6894B111D0
:101AB0000C944D0C08950E94320C88F09F5798F0BA
:101AC000B92F9927B751B0F0E1F0660F771F881F43
:101AD000991F1AF0BA95C9F714C0B13091F00E945D
:101AE0004C0CB1E008950C944C0C672F782F88278C
:101AF000B85F39F0B93FCCF3869577956795B39584
:101B0000D9F73EF490958095709561957F4F8F4FF2
:101B10009F4F08950E94710B08F48FEF08950E9463
:101B2000710B880B990B0895EE0FFF1F0590F49130
:081B3000E02D0994F894FFCFA9
:101B3800BA02BA02000000009F01A3002C01EC01C8
:101B48005D013B014F016E616E00696E66006F7644
:101B58006600564D4450565F317C315F564D4450B7
:101B6800560A00564D4450525F00564D4450455F4A
:101B7800003A323A007C005F564D445045000D0A49
:041B8800002C00002D
:00000001FF
