:100000000C94DB000C94B6060C948F060C94030140
:100010000C9403010C9403010C9403010C94030150
:100020000C9403010C9403010C9403010C94030140
:100030000C9403010C9403010C9403010C94030130
:100040000C9445060C9403010C9413060C94ED05D6
:100050000C9403010C9403010C9403010C94030110
:100060000C9403010C94030100407A10F35A00A091
:10007000724E18090010A5D4E80000E87648170071
:1000800000E40B54020000CA9A3B000000E1F505B1
:10009000000080969800000040420F000000A086FB
:1000A00001000000102700000000E803000000002D
:1000B0006400000000000A000000000001000000D1
:1000C00000002C76D888DC674F0823DFC1DFAE59EB
:1000D000E1B1B796E5E3E453C63AE651997696E87E
:1000E000E6C28426EB898C9B62ED407C6FFCEFBC02
:1000F0009C9F40F2BAA56FA5F490055A2AF75C932D
:100100006B6CF9676DC11BFCE0E40D47FEF520E662
:10011000B500D0ED902E0300943577050080841E45
:10012000080000204E0A000000C80C333333330FA0
:10013000986E12831141EF8D2114893BE65516CF3D
:10014000FEE6DB18D1844B381BF77C1D901DA4BB49
:10015000E424203284725E228100C9F124ECA1E5FE
:100160003D2700000000240027002A0000000000B6
:10017000250028002B0004040404040404040202E3
:100180000202020203030303030301020408102016
:100190004080010204081020010204081020000021
:1001A0000008000201000003040700000000000036
:1001B0000000DD06230D11241FBECFEFD8E0DEBF07
:1001C000CDBF22E0A4E6B1E001C01D92A43FB2077A
:1001D000E1F711E0A0E0B1E0E0E5F9E202C005904E
:1001E0000D92A436B107D9F710E0CAEDD0E004C0F3
:1001F0002197FE010E94A312C93DD107C9F70E94B1
:1002000057070C949B140C940000E1EBF1E0A089DB
:10021000B18982E08C93A485B5851C92A685B785AB
:100220008FEC8C93108EA489B58986E08C93A2897B
:10023000B3898C9180618C93A289B3898C918860F9
:100240008C93A289B3898C9180688C930288F389FE
:10025000E02D80818F7D808308958230C8F4E82F5F
:10026000F0E0EE0FFF1FE050FF4F7183608381309D
:1002700041F0809169008C7F826080936900E89AE8
:10028000089580916900837F886080936900E99A6E
:100290000895AF92BF92CF92DF92EF92FF920F93A9
:1002A0001F93CF93DF936C017B018B01040F151F0C
:1002B000EB015E01AE18BF08C017D10759F0699174
:1002C000D601ED91FC910190F081E02DC6010995D8
:1002D000892B79F7C501DF91CF911F910F91FF9085
:1002E000EF90DF90CF90BF90AF90089589B129B182
:1002F00090E0959587959595879530E043E0359505
:1003000027954A95E1F7822780FF1BC081E090E0A6
:100310004091AD015091AE016091AF017091B0017B
:10032000092E000CAA0BBB0B840F951FA61FB71F2D
:100330008093AD019093AE01A093AF01B093B00153
:1003400008958FEF9FEFE4CF89B129B190E09595A3
:1003500087959595879530E043E0359527954A95A3
:10036000E1F7822780FD1BC081E090E04091AD0164
:100370005091AE016091AF017091B001092E000C57
:10038000AA0BBB0B840F951FA61FB71F8093AD014F
:100390009093AE01A093AF01B093B00108958FEF99
:1003A0009FEFE4CFFC01538D448D252F30E0842F47
:1003B00090E0821B930B541710F0CF96089501978D
:1003C0000895FC01918D828D981761F0A28DAE0F7A
:1003D000BF2FB11D5D968C91928D9F5F9F73928F01
:1003E00090E008958FEF9FEF0895FC01918D828D2D
:1003F000981731F0828DE80FF11D858D90E00895FA
:100400008FEF9FEF0895FC01918D228D892F90E051
:10041000805C9F4F821B91098F739927089581EB10
:1004200091E00E94030221E0892B09F420E0822F51
:10043000089580E090E0892B29F00E940F0281113D
:100440000C9400000895FC01A48DA80FB92FB11DD4
:10045000A35ABF4F2C91848D90E001968F739927FA
:10046000848FA689B7892C93A089B1898C918370D8
:1004700080648C93938D848D981306C00288F389D1
:10048000E02D80818F7D80830895EF92FF920F93FE
:100490001F93CF93DF93EC0181E0888F9B8D8C8D30
:1004A00098131AC0E889F989808185FF15C09FB724
:1004B000F894EE89FF896083E889F98980818370E7
:1004C000806480839FBF81E090E0DF91CF911F9196
:1004D0000F91FF90EF900895F62E0B8D10E00F5FB7
:1004E0001F4F0F731127E02E8C8D8E110CC00FB68D
:1004F00007FCFACFE889F989808185FFF5CFCE0125
:100500000E942302F1CFEB8DEC0FFD2FF11DE35A7A
:10051000FF4FF0829FB7F8940B8FEA89FB898081A7
:100520008062CFCF682F81EB91E00C944502CF938E
:10053000DF93EC01888D8823B9F0AA89BB89E8890B
:10054000F9898C9185FD03C0808186FD0DC00FB6B1
:1005500007FCF7CF8C9185FFF2CF808185FFEDCF2F
:10056000CE010E942302E9CFDF91CF91089590E060
:10057000FC01E256FE4F2491FC01E657FE4F3491F8
:10058000FC01EA58FE4FE491EE23C9F0222339F032
:10059000233001F1A8F4213019F1223029F1F0E0E3
:1005A000EE0FFF1FE459FE4FA591B4918FB7F89459
:1005B000EC91611126C030953E233C938FBF089586
:1005C0002730A9F02830C9F0243049F78091800005
:1005D0008F7D03C0809180008F7780938000DFCF74
:1005E00084B58F7784BDDBCF84B58F7DFBCF8091C1
:1005F000B0008F778093B000D2CF8091B0008F7D14
:10060000F9CF3E2BDACFCF93DF9390E0FC01E65792
:10061000FE4F24918A589E4FFC0184918823D1F08B
:1006200090E0880F991FFC01EE59FE4FA591B491FF
:10063000FC01E459FE4FC591D491623071F49FB72B
:10064000F8943C91822F809583238C93E8812E2B04
:1006500028839FBFDF91CF9108958FB7F894EC91D5
:100660002E2B2C938FBFF6CF3FB7F8948091690162
:1006700090916A01A0916B01B0916C0126B5A89B85
:1006800005C02F3F19F00196A11DB11D3FBFBA2F24
:10069000A92F982F8827BC01CD01620F711D811DE4
:1006A000911D42E0660F771F881F991F4A95D1F769
:1006B00008958F929F92AF92BF92CF92DF92EF9266
:1006C000FF924B015C010E9434036B017C010E948C
:1006D00034036C197D098E099F09683E73408105BA
:1006E0009105A8F321E0821A9108A108B10888EECB
:1006F000C80E83E0D81EE11CF11C81149104A104F2
:10070000B10429F7FF90EF90DF90CF90BF90AF90AA
:100710009F908F9008952FB7F89460916501709124
:10072000660180916701909168012FBF0895089537
:10073000EF92FF920F931F93CF93DF9300D000D0DF
:10074000CDB7DEB781EB91E00E94E10181EB91E052
:100750000E94E1018E010F5F1F4F78018A3341F043
:10076000F80181938F0181EB91E00E94E101F6CFC6
:10077000C7010E94490D182F81EB91E00E94E10111
:100780008053990B8230910520F4682F812F0E94AD
:10079000B70281EB91E00E94E1018A3011F08D30C7
:1007A000C1F781EB91E00E94F5018A3021F481EBE1
:1007B00091E00E94E1010F900F900F900F90DF9158
:1007C000CF911F910F91FF90EF900895FC01019040
:1007D0000020E9F73197AF01481B590BBC0181EBB1
:1007E00091E00C9449018F929F92AF92BF920F9328
:1007F0001F93CF93DF93CDB7DEB7A1970FB6F894D1
:10080000DEBF0FBECDBF19A2423008F44AE08E0110
:100810000F5D1F4F842E912CB12CA12CA5019401AA
:100820000E942B11E62FB901CA01EA30F4F4E05D11
:10083000D801EE938D01232B242B252B79F790E003
:1008400080E0109719F0CD010E94E603A1960FB643
:10085000F894DEBF0FBECDBFDF91CF911F910F91F6
:10086000BF90AF909F908F900895E95CE1CF4F9239
:100870005F926F927F928F929F92AF92BF92CF9230
:10088000DF92EF92FF920F931F93CF936B017C0146
:10089000742EAC019B010E949E12882399F08CE17A
:1008A00091E0CF911F910F91FF90EF90DF90CF904B
:1008B000BF90AF909F908F907F906F905F904F9080
:1008C0000C94E60346015701E894B7F82FEF3FEF89
:1008D0004FE75FE7C501B4010E949E1281110DC070
:1008E0002FEF3FEF4FE75FE7C501B4010E9407100C
:1008F00018161CF480E291E0D4CF2FEF3FEF4FE7C2
:100900005FE4C701B6010E94991218161CF484E234
:1009100091E0C7CF2FEF3FEF4FE75FECC701B60184
:100920000E94071087FDF3CF20E030E0A901C70146
:10093000B6010E94071010E000E087FF08C08DE2BA
:100940000E9492028C01F7FAF094F7F8F094C0E05C
:1009500060E070E080E09FE37C1641F020E030E052
:1009600040E251E40E94F111CF5FF6CFA70196015A
:100970000E9485112B013C010E946A124B015C010F
:100980004AE00E94F3037C01E00EF11ECC23B1F19A
:10099000C501B4010E940C109B01AC01C301B2015E
:1009A0000E9484114B015C018EE20E949202E80ECB
:1009B000F91EC15018F120E030E040E251E4C501D9
:1009C000B4010E946D102B013C010E946A124B0180
:1009D000B12CA12C4AE0C501B4010E94F303E80E3A
:1009E000F91EC501B4010E940C109B01AC01C301AA
:1009F000B2010E9484114B015C01DBCFC701CF9192
:100A00001F910F91FF90EF90DF90CF90BF90AF902C
:100A10009F908F907F906F905F904F9008950F936D
:100A20001F93CF93DF93EC0188819981009759F050
:100A30002A813B812617370730F081E0DF91CF9183
:100A40001F910F9108958B016F5F7F4F0E94CE130E
:100A5000009759F0998388831B830A832C813D81F9
:100A6000232B59F7FC011082E8CF80E0E7CFCF932A
:100A7000DF93EC0188819981009711F00E94451362
:100A8000198218821D821C821B821A82DF91CF91EB
:100A90000895EF92FF920F931F93CF93DF93EC0192
:100AA000FB01E080F180E114F10411F10481158172
:100AB00001151105A9F08C819D81080F191FB8013E
:100AC000CE010E940F05882399F0288139818C81FD
:100AD0009D81B701820F931F0E9494141D830C8384
:100AE000CE01DF91CF911F910F91FF90EF9008956C
:100AF000CE010E943705F4CFEF92FF920F931F9320
:100B0000CF93DF93EC017B018A01BA010E940F05AC
:100B100081110BC0CE010E943705CE01DF91CF912C
:100B20001F910F91FF90EF9008951D830C83B701E3
:100B3000888199810E949414F0CFEF92FF920F93D5
:100B40001F93CF93DF93CDB7DEB7A1970FB6F8947D
:100B5000DEBF0FBECDBF7C01CB01BA01F701118210
:100B6000108213821282158214828E010F5F1F4F32
:100B700022E044E00E942B0D0097C9F0FC01019097
:100B80000020E9F73197AF01481B590BBC01C701A1
:100B90000E947C05A1960FB6F894DEBF0FBECDBFB4
:100BA000DF91CF911F910F91FF90EF900895C701B2
:100BB0000E943705EFCFFB0101900020E9F7319744
:100BC000AF01461B570B0C947C05FC018081918181
:100BD000009711F00C94451308951F920F920FB6D1
:100BE0000F9211242F933F934F935F936F937F93B3
:100BF0008F939F93AF93BF93EF93FF9381EB91E01C
:100C00000E942302FF91EF91BF91AF919F918F912D
:100C10007F916F915F914F913F912F910F900FBEF8
:100C20000F901F9018951F920F920FB60F921124DC
:100C30002F938F939F93EF93FF93E091C101F091D6
:100C4000C2018081E091C701F091C80182FD1BC003
:100C500090818091CA018F5F8F732091CB018217A1
:100C600041F0E091CA01F0E0EF54FE4F958F809380
:100C7000CA01FF91EF919F918F912F910F900FBE1D
:100C80000F901F9018958081F4CF1F920F920FB68E
:100C90000F9211242F933F938F939F93AF93BF9302
:100CA0008091650190916601A0916701B091680102
:100CB0003091640123E0230F2D3758F50196A11DD3
:100CC000B11D209364018093650190936601A09308
:100CD0006701B09368018091690190916A01A091C8
:100CE0006B01B0916C010196A11DB11D809369014A
:100CF00090936A01A0936B01B0936C01BF91AF9187
:100D00009F918F913F912F910F900FBE0F901F9049
:100D1000189526E8230F0296A11DB11DD2CF1F9270
:100D20000F920FB60F9211242F933F934F935F931F
:100D30006F937F938F939F93AF93BF93EF93FF93A3
:100D4000E0910201F09103010995FF91EF91BF91AC
:100D5000AF919F918F917F916F915F914F913F9153
:100D60002F910F900FBE0F901F9018951F920F920A
:100D70000FB60F9211242F933F934F935F936F936E
:100D80007F938F939F93AF93BF93EF93FF93E091E4
:100D90000001F09101010995FF91EF91BF91AF9191
:100DA0009F918F917F916F915F914F913F912F9183
:100DB0000F900FBE0F901F901895CF93DF93E1EB2C
:100DC000F1E01382128288EE93E0A0E0B0E0848329
:100DD0009583A683B7838EE091E09183808385EC31
:100DE00090E09587848784EC90E09787868780ECF5
:100DF00090E0918B808B81EC90E0938B828B82ECE6
:100E000090E0958B848B86EC90E0978B868B118E8F
:100E1000128E138E148EEEE4F2E016821782108684
:100E20001186128613861486158616861786108AF2
:100E3000118A128A138A148A158AE2EAF2E08BE098
:100E400090E0978B868B8CE090E0918F808F118261
:100E5000108210A211A212A213A2178E168E128A4D
:100E6000138A148A158A10AA11AA12AA13AAC4E90D
:100E7000D2E0198218821B821A821D821C8266E5CA
:100E800071E0CE010E94DB05198618861B861A8642
:100E90001D861C8666E571E08CE992E00E94DB0508
:100EA00080E895E29F838E83DF91CF910895CF9361
:100EB000DF93CDB7DEB7C054D1090FB6F894DEBFCB
:100EC0000FBECDBF789484B5826084BD84B5816047
:100ED00084BD85B5826085BD85B5816085BD809105
:100EE0006E00816080936E0010928100809181007D
:100EF0008260809381008091810081608093810075
:100F0000809180008160809380008091B100846036
:100F10008093B1008091B00081608093B000809197
:100F20007A00846080937A0080917A008260809356
:100F30007A0080917A00816080937A0080917A00B3
:100F4000806880937A001092C100109290021092F3
:100F500091021092920210929302109250021092FB
:100F6000510210925202109253020E948B036B01A5
:100F70007C014B015C0128EB820E2BE0921EA11C30
:100F8000B11C0E948B036C157D058E059F0528F012
:100F900086169706A806B906A0F768EE73E080E00B
:100FA00090E00E9459030E9405010E948B03609308
:100FB000500270935102809352029093530288E240
:100FC00091E00E94E6030E948B036B017C014B01C0
:100FD0005C013AE0830E911CA11CB11C0E948B03A2
:100FE0006C157D058E059F0528F086169706A806C8
:100FF000B906A0F781E0809364020E948B0360939E
:10100000500270935102809352029093530289E3ED
:1010100091E00E94E60361E08091B8020E94030320
:1010200061E08091BA020E94030362E082E00E94C4
:10103000030362E083E00E9403030E948B03672B9B
:10104000682B692B09F4F3C00E948B0300916D019A
:1010500010916E0120916F0130917001601771073E
:101060008207930708F4A1C200916D0110916E01EF
:1010700020916F01309170016B017C01C01AD10A7F
:10108000E20AF30A97018601083E13402105310563
:1010900008F4D5C060936D0170936E0180936F0169
:1010A0009093700184EF91E0A0E0B0E080935C0247
:1010B00090935D02A0935E02B0935F021092600273
:1010C00010926102109262021092630280915402A7
:1010D00090915502A0915602B09157028093580208
:1010E00090935902A0935A02B0935B020E948B0323
:1010F0006093540270935502809356029093570266
:1011000081EB91E00E94F501843611F40E9498036E
:101110000E948B036093500270935102809352029D
:10112000909353020E948B036B017C0180E491E059
:101130000E94E6034AE061E070E080E090E00E94F7
:10114000F30387E491E00E94E6034AE0C701B60199
:101150000E94F30389E491E00E94E6038091540227
:1011600090915502A0915602B0915702A7019601A5
:10117000281B390B4A0B5B0BCA01B9014AE00E94DC
:10118000F30389E491E00E94E603609154027091B8
:101190005502809156029091570200915802109189
:1011A000590220915A0230915B02601B710B820B35
:1011B000930B4AE00E94F3038BE491E00E94E60364
:1011C0000E948B034AE00E94F3038DE491E00E94A9
:1011D000E60384E591E00E94E6030E948B036B0125
:1011E0007C014B015C0132E0830E911CA11CB11CFF
:1011F0000E948B036C157D058E059F0528F08616D1
:101200009706A806B906A0F781EB91E00E94F501C8
:10121000843611F40E9498030E948B036093540259
:1012200070935502809356029093570208C00E9413
:101230008B03623071058105910508F005CF66E7E3
:1012400071E080E00E942D0164EA71E081E00E947B
:101250002D010E9405011E0147E3240E311C8E0161
:101260000F5F1F4F8FB7F8944091AD015091AE01C1
:101270006091AF017091B0015093A3024093A2021C
:101280008FBFC090A901D090AA01E090AB01F0906F
:10129000AC012196CCAEDDAEEEAEFFAE21970E9442
:1012A00034032B013C014092B0025092B102609293
:1012B000B2027092B3028091C2029091C302A091D7
:1012C000C402B091C502A3019201281B390B4A0B3D
:1012D0005B0BCA01B9010E940E1020E034E244E722
:1012E00059E40E94F1116B017C01C092C602D092B8
:1012F000C702E092C802F092C902A090A202B09088
:10130000A3028091C0029091C102B501681B790BC4
:10131000072E000C880B990B0E940E10A701960156
:101320000E94F1116093CA027093CB028093CC02A9
:101330009093CD02B092C102A092C0024092C2022C
:101340005092C3026092C4027092C50220E030E065
:1013500040E252E40E94F11120E030E040E752E424
:101360000E946D104B015C018092CE029092CF02E0
:10137000A092D002B092D1022EEB3FE94AE55FE3A2
:101380006091B4027091B5028091B6029091B7025B
:101390000E946D102B013C012BE238E145E95DE331
:1013A000C501B4010E946D109B01AC01C301B201E3
:1013B0000E9485112B013C012BE238E145E95DE3F8
:1013C0006091D2027091D3028091D4029091D502A3
:1013D0000E946D109B01AC01C301B2010E948511F6
:1013E0009B01AC012093B4023093B5024093B60246
:1013F0005093B7028092D2029092D302A092D4026C
:10140000B092D50280E090E0A0E0B0E48093A40226
:101410009093A502A093A602B093A7021092A802EF
:101420001092A9021092AA021092AB021092AC0282
:101430001092AD021092AE021092AF02A1E0B0E0A5
:10144000B093EB02A093EA0221966CAD7DAD8EAD18
:101450009FAD21970E9484114B015C018092DA02BA
:101460009092DB02A092DC02B092DD02A70196010D
:101470000E946D102091E2023091E3024091E4025B
:101480005091E5020E9485112B013C014092E2023D
:101490005092E3026092E4027092E5022091DE0233
:1014A0003091DF024091E0025091E102C501B401A8
:1014B0000E948411A70196010E94F1116B017C0129
:1014C000C092E602D092E702E092E802F092E902CE
:1014D000A5019401C501B4010E9485114B015C0175
:1014E00020E030E0A901C301B2010E946D109B0110
:1014F000AC01C501B4010E9485114B015C0120E0E3
:1015000030E0A901C701B6010E946D109B01AC013A
:10151000C501B4010E9485116B017C01C092D60205
:10152000D092D702E092D802F092D90220E030E0C7
:10153000A9010E94071087FF06C0EFEFFFEFF093AD
:10154000EB02E093EA02C701B6019F770E946312A3
:101550006F3F710509F094F57093ED026093EC0212
:101560008091EC029091ED0244973CF484E1E82EE6
:10157000F12CF092ED02E092EC02C090B802D09013
:10158000B902E090EC02F090ED02A090EA02B09077
:10159000EB0261E08C2D0E940303E114F104B1F42D
:1015A00060E08C2D0E94B70240C060936D01709383
:1015B0006E0180936F019093700156CDCC24CA9434
:1015C000D12CD092ED02C092EC02CACF2FEFE216DE
:1015D000F10411F461E0E5CFF601FF27E256FE4F7A
:1015E000E491E33009F40EC150F4E130D1F0E2307F
:1015F00009F403C130E8E316F10464F7D1CFE73012
:1016000009F40AC1E83009F40FC1E43099F7809178
:101610008000806280938000F0928B00E0928A00CC
:1016200004C084B5806884BDE7BC8091BA0261E0E3
:1016300041E0A416B10429F060E0AB20A09409F0C9
:10164000FBC00E94B70281EB91E00E9403021816D2
:1016500019060CF00CC181EB91E00E94E101209190
:10166000A7013091A8018D3009F0F1C021583E4FFB
:10167000D9011C9267E571E08FE791E00E94670D48
:101680000E94490DBC01990F880B990B0E940E1006
:101690006093A9017093AA018093AB019093AC0170
:1016A00067E571E090E080E00E94670D0E94490DBF
:1016B000BC01990F880B990B0E940E106093710169
:1016C00070937201809373019093740167E571E0E8
:1016D00090E080E00E94670D0E94490DBC01990FC7
:1016E000880B990B0E940E10609375017093760120
:1016F000809377019093780167E571E090E080E056
:101700000E94670D0E94490DBC01990F880B990B2F
:101710000E940E106093790170937A0180937B018F
:1017200090937C0167E571E090E080E00E94670D96
:101730000E94490D90937E0180937D0189E591E09F
:101740000E94E6036091A9017091AA018091AB010A
:101750009091AC0142E00E9437048AE30E94920219
:101760006091710170917201809173019091740187
:1017700042E00E9437048AE30E9492026091750160
:1017800070917601809177019091780142E00E94FA
:1017900037048AE30E9492026091790170917A0184
:1017A00080917B0190917C0142E00E9437048AE3A2
:1017B0000E949202C0907D01D0907E010D2C000C01
:1017C000EE08FF084AE0C701B601F7FE0BC08DE244
:1017D0000E94920266277727CB016C197D098E093A
:1017E0009F094AE00E94F30384E591E00E94E6032A
:1017F0001092A8011092A70126CF84B5806284BD03
:10180000E8BC13CF80918000806880938000F092C4
:101810008900E092880009CF8091B00080688093B1
:10182000B000E092B30001CF8091B000806280935D
:10183000B000E092B400F9CE0E94B702F090B80276
:1018400061E08F2D0E94030360E08F2DFACE2732D6
:10185000310508F0F8CEA9014F5F5F4F5093A80102
:101860004093A70121583E4FF9018083ECCE18AE7A
:101870001FAA1AAE19AE1CAE1BAE66E571E0C1011F
:101880000E94DB051AAA19AA1CAA1BAA1EAA1DAA35
:1018900067E571E0CE01C1960E94DB0580917D0174
:1018A00090917E011C8A1B8A1E8A1D8A188E1F8AAF
:1018B0004AE0B8010E94930DF80101900020E9F779
:1018C0003197AF01401B510BB801CE0143960E94E6
:1018D0007C054091790150917A0160917B01709172
:1018E0007C01C8010E949D054091750150917601CF
:1018F0006091770170917801CE0149960E949D0513
:101900004091710150917201609173017091740165
:10191000CE014F960E949D054091A9015091AA01C8
:101920006091AB017091AC01CE018B960E949D0538
:101930001EA21DA218A61FA21AA619A66BA57CA5F9
:101940006115710531F04FA558A9CE0185960E9409
:101950007C05BE016F5C7F4FCE0185960E944905D4
:10196000BE01615E7F4F0E944905BE016F5C7F4FE3
:101970000E944905BE01675E7F4F0E944905BE0176
:101980006F5C7F4F0E944905B8010E944905BE0166
:101990006F5C7F4F0E944905BE016D5E7F4F0E94C4
:1019A00049058215930571F0DC016D917C911197C9
:1019B0006115710509F443C014964D915C91C10104
:1019C0000E947C05CE0185960E94E505CE018B968E
:1019D0000E94E505CE014F960E94E505CE0149968D
:1019E0000E94E505C8010E94E505CE0143960E94CC
:1019F000E5054BAD5CAD6FA978AD81EB91E00E9440
:101A0000490184E591E00E94E60361E070E080E036
:101A100090E00E945903CE01C1960E94E505C101E4
:101A20000E94E50580E090E0892B09F41BCC0E9420
:101A30000F02882309F416CC0E94000013CCC101C8
:101A40000E943705BFCF8CE992E00E94E50584E94A
:101A500092E00C94E505EF920F931F93CF93DF93E1
:101A6000E80134E047FD34E1042E000C550B57FF2C
:101A700003C0519541955109E32E022F242FAE0149
:101A80000E94C00DCE01DF91CF911F910F91EF9079
:101A90000895FC0188279927E89421912032E9F3E1
:101AA000293010F02E30C8F32B3241F02D3239F4AA
:101AB000689404C00E949E0D820F911D21912053B5
:101AC0002A30C0F31EF4909581959F4F08954EEEF5
:101AD00052E00E946C0D0895FA01A191B081009727
:101AE00019F41097E1F0CD01DC01CD010D9000203B
:101AF00011F4C00113C0FB012191222319F020151C
:101B0000D9F7F3CFFB012191201519F41E921196FC
:101B100006C02223C1F70D900020A1F7D001FA01E1
:101B2000A193B0830895BB274A3031F4992322F45E
:101B3000BDE2909581959F4F0C94A70D7AE0979FF9
:101B4000902D879F802D910D11240895BB27FB01B7
:101B50005527AA27880F991FAA1FA41710F0A41BA6
:101B600083955051B9F7A05DAA3308F0A95DA19300
:101B7000009779F7B111B1931192CB010C94F70F43
:101B8000A9E0B0E0E6ECFDE00C9453116A01F22EFE
:101B9000B02E102FFBE3AF2EA01608F41BE31F5F3F
:101BA000012F27E0AE014F5F5F4F0E941F0FBC0166
:101BB0008981982F9970913009F43FC09BE2E1FC34
:101BC00004C09E2D9170E0FC3AC05E2D5071E82F4C
:101BD000E87083FF46C084E0911101C083E0EF2DDF
:101BE000E81B8F1508F0E0E0D6018E2F20E2552388
:101BF00051F1992329F0D6019C93C60101966C01FD
:101C000096012D5F3F4FE2FE24C08EE4D6018C93F7
:101C100091E411969C93119712968C93D9018E2F73
:101C200090E281111BC0E20FF32FF11D10828EEFA5
:101C30009FEF2996ECE00C946F119DE2C6CF90E2E5
:101C4000C4CF2D9381508111FCCFCE0ED11CE0E08A
:101C5000D0CF8EE6D6018C9391E6DBCF9D93815059
:101C6000E0CF482F447082FF3DC084E0911101C055
:101C700083E08F1510F4EF2DE81BD6018E2F20E2A4
:101C8000552309F1992329F0D6019C93C6010196A9
:101C90006C0196012D5F3F4FE2FE1BC089E4D60127
:101CA0008C938EE411968C93119786E412968C9304
:101CB000D9018E2F90E2882309F4B5CF9D938150EE
:101CC000FACF2D9381508111FCCFCE0ED11CE0E0D4
:101CD000D9CF89E6D6018C938EE611968C93119715
:101CE00086E6E4CF9B0177FF02C030E020E0A1E070
:101CF000B0E0911102C0B0E0A0E0F9013196AE0F62
:101D0000BF1F8B2C912CBB2009F461C05401EFEF55
:101D1000AE1ABE0AAA0DBB1DFA161B0619F014F066
:101D20004F2D4A1B511188C0E3FC59C07601A42FE6
:101D3000B0E2A1114FC0C40ED11C992309F45BC0BD
:101D400040E0D6011196F60190836D01552309F408
:101D500048C0012F060F9A81582F507184FF03C08D
:101D6000913309F4015010160CF047C0093008F007
:101D700008E0EEE2FE2E5B01A01AB1088501919405
:101D8000819491082F3F320729F4D601FC92F60185
:101D900031966F016217730794F1021713077CF5F0
:101DA000DB01A21BB30BAA24A394B12CAC0EBD1E65
:101DB000AA0DBB1D11968C9121503109D6011196A7
:101DC00028153905F4F0F60180836D01DBCFB12CC5
:101DD000A12CA0CFF701B1937F01A150AACF9111FF
:101DE000B0CFD601942F50E302C05D939150911172
:101DF000FCCFC40ED11C40E0ACCF01E0BACF80E3F1
:101E0000DBCF6217730731F4963388F4953311F4FE
:101E1000552369F0F6018083FD01842F90E2811142
:101E200008C0A40FB11D1C9290E080E002CF81E3B6
:101E3000F1CF91938150F3CF911183CF8ACF283086
:101E400008F027E03327DA01990F311D87FD9160F3
:101E500000966105710539F432602E5F3D9330E3E1
:101E60002A95E1F708959F3F30F0803871056105AC
:101E700009F03C5F3C5F3D93913008F08068911D14
:101E8000DF93CF931F930F93FF92EF92192F987FB9
:101E90009695E92F96959695E90FFF27EE53FF4FFC
:101EA00099273327EE24FF24A701E7010590089422
:101EB000079428F4360FE71EF81E491F511D660FC0
:101EC000771F881F991F0694A1F70590079428F49F
:101ED000E70EF81E491F561FC11D770F881F991F57
:101EE000661F0694A1F70590079428F4F80E491F81
:101EF000561FC71FD11D880F991F661F771F069495
:101F0000A1F70590079420F4490F561FC71FD81F4B
:101F1000990F661F771F881F0694A9F78491109563
:101F2000177041F0D695C79557954795F794E79464
:101F30001A95C1F7E8E6F0E068941590159135918F
:101F40006591959105907FE27395E118F10A430B35
:101F5000560BC90BD009C0F7E10CF11E431F561FE9
:101F6000C91FD01D7EF4703311F48A95E6CFE89432
:101F7000015030F0080F0AF40027021708F4202F50
:101F80002395022F7A3328F079E37D932A95E9F798
:101F900010C07D932A9589F6069497956795379595
:101FA00017951794E118F10A430B560BC90BD0098A
:101FB00098F023957E9173957A3308F070E37C93C3
:101FC0002013B8F77E9170617D9330F0839571E3B3
:101FD0007D9370E32A95E1F71124EF90FF900F9124
:101FE0001F91CF91DF91992787FD90950895DC018E
:101FF000FC01672F71917723E1F7329704C07C9140
:102000006D9370836291AE17BF07C8F308950E9465
:10201000491008F481E00895E89409C097FB3EF464
:1020200090958095709561957F4F8F4F9F4F992325
:10203000A9F0F92F96E9BB279395F69587957795A3
:102040006795B795F111F8CFFAF4BB0F11F460FF63
:102050001BC06F5F7F4F8F4F9F4F16C0882311F0BB
:1020600096E911C0772321F09EE8872F762F05C0CF
:10207000662371F096E8862F70E060E02AF09A956A
:10208000660F771F881FDAF7880F9695879597F95F
:102090000895990F0008550FAA0BE0E8FEEF1616F9
:1020A0001706E807F907C0F012161306E407F5074C
:1020B00098F0621B730B840B950B39F40A2661F0C0
:1020C000232B242B252B21F408950A2609F4A14063
:1020D000A6958FEF811D811D08950E9480100C949C
:1020E000F1100E94E31038F00E94EA1020F09523CE
:1020F00011F00C94DA100C94E01011240C942511BA
:102100000E94021170F3959FC1F3950F50E0551F87
:10211000629FF001729FBB27F00DB11D639FAA273C
:10212000F00DB11DAA1F649F6627B00DA11D661F8B
:10213000829F2227B00DA11D621F739FB00DA11DAC
:10214000621F839FA00D611D221F749F3327A00D66
:10215000611D231F849F600D211D822F762F6A2F02
:1021600011249F5750409AF0F1F088234AF0EE0F67
:10217000FF1FBB1F661F771F881F91505040A9F794
:102180009E3F510580F00C94DA100C9425115F3FAE
:10219000E4F3983ED4F3869577956795B795F795D0
:1021A000E7959F5FC1F7FE2B880F911D9695879548
:1021B00097F9089597F99F6780E870E060E00895C7
:1021C0009FEF80EC089500240A941616170618064F
:1021D0000906089500240A9412161306140605062B
:1021E0000895092E0394000C11F4882352F0BB0FBC
:1021F00040F4BF2B11F460FF04C06F5F7F4F8F4F1F
:102200009F4F089557FD9058440F551F59F05F3F59
:1022100071F04795880F97FB991F61F09F3F79F008
:1022200087950895121613061406551FF2CF46958A
:10223000F1DF08C0161617061806991FF1CF86950C
:102240007105610508940895E894BB2766277727F0
:10225000CB0197F90895A1E21A2EAA1BBB1BFD0121
:102260000DC0AA1FBB1FEE1FFF1FA217B307E40775
:10227000F50720F0A21BB30BE40BF50B661F771FCD
:10228000881F991F1A9469F76095709580959095AD
:102290009B01AC01BD01CF0108952F923F924F9257
:1022A0005F926F927F928F929F92AF92BF92CF92E6
:1022B000DF92EF92FF920F931F93CF93DF93CDB7EF
:1022C000DEB7CA1BDB0B0FB6F894DEBF0FBECDBF67
:1022D00009942A88398848885F846E847D848C8438
:1022E0009B84AA84B984C884DF80EE80FD800C8141
:1022F0001B81AA81B981CE0FD11D0FB6F894DEBF24
:102300000FBECDBFED0108955058BB27AA270E94EC
:102310009C110C94F1100E94E31038F00E94EA1016
:1023200020F039F49F3F19F426F40C94E0100EF4D9
:10233000E095E7FB0C94DA10E92F0E94021158F3A4
:10234000BA17620773078407950720F079F4A6F59A
:102350000C9424110EF4E0950B2EBA2FA02D0B0136
:10236000B90190010C01CA01A0011124FF27591BDA
:1023700099F0593F50F4503E68F11A16F040A22FE0
:10238000232F342F4427585FF3CF46953795279551
:10239000A795F0405395C9F77EF41F16BA0B620B50
:1023A000730B840BBAF09150A1F0FF0FBB1F661F97
:1023B000771F881FC2F70EC0BA0F621F731F841FDA
:1023C00048F4879577956795B795F7959E3F08F000
:1023D000B0CF9395880F08F09927EE0F97958795C2
:1023E00008950E9405120C94F1100E94EA1058F012
:1023F0000E94E31040F029F45F3F29F00C94DA10BA
:1024000051110C9425110C94E0100E94021168F3F4
:102410009923B1F3552391F3951B550BBB27AA279D
:1024200062177307840738F09F5F5F4F220F331FD7
:10243000441FAA1FA9F335D00E2E3AF0E0E832D09F
:1024400091505040E695001CCAF72BD0FE2F29D0A2
:10245000660F771F881FBB1F261737074807AB0774
:10246000B0E809F0BB0B802DBF01FF2793585F4FE9
:102470003AF09E3F510578F00C94DA100C94251137
:102480005F3FE4F3983ED4F3869577956795B795CB
:10249000F7959F5FC9F7880F911D9695879597F9D6
:1024A0000895E1E0660F771F881FBB1F621773074F
:1024B0008407BA0720F0621B730B840BBA0BEE1F64
:1024C00088F7E09508950E946A126894B1110C94FF
:1024D000251108950E940A1188F09F5798F0B92F8E
:1024E0009927B751B0F0E1F0660F771F881F991F49
:1024F0001AF0BA95C9F714C0B13091F00E942411B6
:10250000B1E008950C942411672F782F8827B85FC5
:1025100039F0B93FCCF3869577956795B395D9F7A0
:102520003EF490958095709561957F4F8F4F9F4FAA
:1025300008950E94491008F48FEF08950E944910F1
:10254000880B990B0895EE0FFF1F0590F491E02D75
:1025500009940F931F93CF93DF938230910510F46A
:1025600082E090E0E091F202F091F30230E020E0AE
:10257000B0E0A0E0309799F42115310509F44AC084
:10258000281B390B24303105D8F58A819B816115D0
:10259000710589F1FB0193838283FE0111C04081A3
:1025A00051810281138148175907E0F048175907F4
:1025B00099F4109761F012960C93129713961C934E
:1025C0003296CF01DF91CF911F910F910895009323
:1025D000F2021093F302F4CF2115310551F04217A6
:1025E000530738F0A901DB019A01BD01DF01F801B1
:1025F000C1CFEF01F9CF9093F3028093F202CDCFD8
:10260000FE01E20FF31F8193919322503109398328
:102610002883D7CF2091F0023091F102232B41F48F
:1026200020910601309107013093F1022093F002CE
:1026300020910401309105012115310541F42DB798
:102640003EB74091080150910901241B350BE091E0
:10265000F002F091F102E217F307A0F42E1B3F0BFA
:102660002817390778F0AC014E5F5F4F2417350704
:1026700048F04E0F5F1F5093F1024093F002819398
:1026800091939FCFF0E0E0E09CCFCF93DF93009752
:10269000E9F0FC01329713821282A091F202B0910C
:1026A000F302ED0130E020E01097A1F420813181A8
:1026B000820F931F2091F0023091F1022817390701
:1026C00009F061C0F093F102E093F002DF91CF9145
:1026D0000895EA01CE17DF07E8F54A815B819E0184
:1026E00041155105B1F7E901FB83EA8349915991FD
:1026F000C40FD51FEC17FD0761F48081918102960C
:10270000840F951FE90199838883828193819B833C
:102710008A83F0E0E0E012968D919C9113970097E8
:10272000B9F52D913C911197CD010296820F931F1F
:102730002091F0023091F1022817390739F63097CD
:1027400051F51092F3021092F202B093F102A093AD
:10275000F002BCCFD383C28340815181840F951F87
:10276000C817D90761F44E5F5F4F88819981480F80
:10277000591F518340838A819B81938382832115D2
:10278000310509F0B0CFF093F302E093F2029ECF4F
:10279000FD01DC01C0CF13821282D7CFB0E0A0E0F0
:1027A000E4EDF3E10C944F118C01009751F4CB014F
:1027B0000E94A9128C01C801CDB7DEB7E0E10C94EC
:1027C0006B11FC01E60FF71F9C0122503109E21743
:1027D000F30708F49DC0D901CD91DC911197C6177C
:1027E000D70798F0C530D10530F3CE01049786178E
:1027F000970708F3C61BD70B2297C193D1936D930C
:102800007C93CF010E944513D6CF5B01AC1ABD0A61
:102810004C018C0E9D1EA091F202B091F302512C3E
:10282000412CF12CE12C109731F58091F002909120
:10283000F1028815990509F05CC04616570608F0A4
:1028400058C08091040190910501009741F48DB723
:102850009EB74091080150910901841B950BE81720
:10286000F90708F055C0F093F102E093F002F90186
:1028700071836083A0CF8D919C91119712966C907B
:10288000129713967C901397A815B90559F56C010A
:1028900042E0C40ED11CCA14DB0420F1AC014A1979
:1028A0005B09DA011296159780F062827382518378
:1028B0004083D9016D937C93E114F10471F0D70149
:1028C0001396FC93EE93129776CF22968C0F9D1F52
:1028D000F90191838083F301EFCFF093F302E0934A
:1028E000F20269CF4816590608F42C017D01D30184
:1028F0009ACFCB010E94A9127C01009749F0AE014A
:10290000B8010E948B14C8010E944513870153CF60
:1029100010E000E050CFFB01DC0102C001900D92FD
:1029200041505040D8F70895FB01DC0101900D9211
:102930000020E1F7089510E0CAEDD0E004C0FE01E8
:102940000E94A3122196CB3DD107C9F7F894FFCF7F
:10295000970397030000F402800000000000450286
:102960004901D20197020302E101F5016E616E0097
:10297000696E66006F766600564D4450565F317C36
:10298000315F564D4450560A00564D4450525F0038
:10299000564D4450455F003A323A007C005F564D38
:1029A000445045000D0A002C0041726475696E6F39
:0429B0003A200000C9
:00000001FF
